:1000000012004275890190030075A000758000758B
:10001000A00075800012008012009DED93F5801203
:1000200000F375A004EC93F5801200F375A008EBC3
:1000300093F5801200F375A00CEA93F5801200F39B
:1000400080CDC2B6D2B5D2B4D2B6C2B522C2B67FC6
:1000500008A2E792B423C2B6D2B6DFF522C2B67FB9
:1000600004E4F5F023A2B792E0D2B6C2B6DFF5F50C
:10007000F0E47F0823A2B792E0D2B6C2B6DFF52241
:10008000C2B6C2B5749412004D000000000000C258
:10009000B60000D2B6000012005DD2B5227A007B15
:1000A000007C007D0085F020F5217E037FE8C312EF
:1000B00000DD40030A80F81200E87E007F64C3126E
:1000C00000DD40030B80F81200E87E007F0AC312B7
:1000D00000DD40030C80F81200E8AD2122E5219FED
:1000E000F521E5209EF52022E5212FF521E5203E92
:1000F000F52022758901C28DC28C758CFC758A67CA
:0A010000D28C308DFDC28DC28C221E
:100300003F065B4F666D7D077F6F777C395E797145
:00000001FF
