:10000000C2A512002C12006A1200DD1200C71200F5
:10001000878A801200A48B801200A48C801200A416
:100020008D801200A47FFF1200AE80D9C2B6D2B577
:10003000D2B4D2B6C2B522C2B67F08A2E792B42328
:10004000C2B6D2B6DFF522C2B67F04E4F5F023A231
:10005000B792E0D2B6C2B6DFF5F5F0E47F0823A28E
:10006000B792E0D2B6C2B6DFF522C2B6C2B574947A
:10007000120037000000000000C2B60000D2B60037
:1000800000120047D2B522C2A67580011200A475E5
:10009000800F1200A47580381200A47580801200B1
:1000A000A4D2A622D2A77F051200AEC2A7227589CC
:1000B00001C28DC28C758CFC758A67D28C308DFD27
:1000C000C28DC28CDFEF2278027F04E6B40A0040C2
:1000D000052437F680032430F608DFEF227A007B10
:1000E000007C007D00A8F0F97E037FE8C312011BAD
:1000F00040030A80F81201227E007F64C312011BB4
:1001000040030B80F81201227E007F0AC312011BFC
:1001100040030C80F8120122890522E99FF9E89E2C
:09012000F822E92FF9E83EF8226B
:00000001FF
