:10000000C2A57520507521597522127523277524B4
:1000100008752501752623748E75F0001201447948
:10002000807820755007E986F0120144080909D547
:1000300050F4748E75F080120144798178207550E7
:1000400007E9120159F6080909D550F51201961869
:100050007580441201BE7580411201BE7580541234
:1000600001BE7580451201BE7580201201BE7580EB
:10007000321201BE7580301201BEE6C4540F243026
:10008000F5801201BEE6540F2430F5801201BE182F
:100090001875802F1201BEE6C4540F2430F580126B
:1000A00001BEE6540F2430F5801201BE1875802F72
:1000B0001201BEE6C4540F2430F5801201BEE6548E
:1000C0000F2430F5801201BE181201B3758054124E
:1000D00001BE7580491201BE75804D1201BE75804A
:1000E000451201BE7580201201BEE6C4540F2430B3
:1000F000F5801201BEE6540F2430F5801201BE18BF
:1001000075803A1201BEE6C4540F2430F580120106
:10011000BEE6540F2430F5801201BE1875803A12E5
:1001200001BEE6C4540F2430F5801201BEE6540F20
:100130002430F5801201BE7FFA1201C87FFA120145
:10014000C802003AC2B500C2B600D2B500120175AD
:10015000E5F0120175C2B50022C2B500C2B600D2E8
:10016000B500120175120185C2B500D2B600C2B445
:1001700000D2B400227F08A2E092B403D2B600C23B
:10018000B600DFF3227F08E4A2B492E003D2B60007
:10019000C2B600DFF322C2A67580011201BE7580CF
:1001A0000F1201BE7580381201BE7580801201BE2B
:1001B000D2A622C2A67580C01201BED2A622D2A7A4
:1001C0007F051201C8C2A722758901C28DC28C7534
:1001D0008CFC758A67D28C308DFDC28DC28CDFEFAE
:0101E00022FC
:00000001FF
