:10000000C2A51201661202981202BE1201F8B401D2
:100010000302006FB402F402001A1202DB1201F8AC
:10002000C4F520C412018BF5801201831201F8C5BA
:10003000204520C52012018BF58012018312031583
:100040001201F8C4F521C412018BF580120183124C
:1000500001F8C5214521C52112018BF580120183CC
:100060001200D51201D91202AB1201BA020000121D
:1000700002F81201F8C4F530C412018BF5801201A8
:10008000831201F8C5304530C53012018BF580125E
:1000900001831203151200B7E531C4540F12018B0E
:1000A000F580120183E531540F12018BF5801201A6
:1000B000831201BA02000012014174A0120109E585
:1000C0003012010912014174A11201091200EBF56D
:1000D000311201562212014174A0120109E52012C9
:1000E0000109E52112010912015622D2A01201B420
:1000F000755008D2A11201B423A2A092E01201B45B
:10010000C2A11201B4D550EB22755008A2E792A00B
:10011000231201B4D2A11201B4C2A11201B4D5506C
:10012000EBD2A01201B4D2A17550FF30A00BD55074
:10013000FAC2F0C2A11201B422D2F0C2A11201B4DB
:1001400022D2A01201B4D2A11201B4C2A01201B4F1
:10015000C2A11201B422C2A01201B4D2A11201B4F0
:10016000D2A01201B422C2A675800112018375804B
:100170000F1201837580381201837580801201830C
:10018000D2A622D2A7120197C2A722B40A00400425
:1001900024378002243022758901C28DC28C7551AA
:1001A00005758CFC758A67D28C308DFDC28DC28C32
:1001B000D551EE22000000000022C030C031C03214
:1001C0007530087531017532ECD532FDD531FAD56F
:1001D00030F7D032D031D03022C030C031C032758B
:1001E00030047531017532ECD532FDD531FAD53098
:1001F000F7D032D031D030227590FFC297209304CF
:100200007401807F2092047402807820910474032A
:100210008071209004740A806AD297C29620930459
:100220007404805F20920474058058209104740641
:100230008051209004740B804AD296C2952093047A
:100240007407803F20920474088038209104740958
:100250008031209004740C802AD295C2942093049B
:10026000740F801F20920474008018209104740E73
:100270008011209004740D800A74551201B4F54762
:100280001201B4B455030201F8B547030201F81294
:1002900001B4F5471201B42212016690032BE493D6
:1002A0006008F580120183A380F422120166900396
:1002B0005EE4936008F580120183A380F4221203A8
:1002C0002090033CE4936008F580120183A380F43E
:1002D000C2A67580C7120183D2A6221201669003BE
:1002E0004DE4936008F580120183A380F4C2A675E3
:1002F00080C3120183D2A62212016690036FE49399
:100300006008F580120183A380F4C2A67580C31231
:100310000183D2A622C2A67580CC120183D2A62266
:10032000C2A67580C0120183D2A622202020454596
:1003300050524F4D2020522F5720200043484F4904
:1003400043453F20313A522020323A57004144443D
:10035000524553533F202020444154413F00202028
:100360002020202020444F4E4521202020200041E5
:100370004444524553533F202020444154413D00C2
:00000001FF
