:1000000002004312010B30F0391200F430F0337962
:1000100020755104755008031200A330F02412001B
:10002000BA30F01ED550F0F709D551E87920784064
:10003000755004E7540FF608E7C4540FF60809D5C5
:1000400050F13290050075A88175A01CE54093F52C
:100050008012014475A018E54193F58012014475A2
:10006000A014E54293F58012014475A010E5439376
:10007000F58012014475A00CE54493F5801201440B
:1000800075A008E54593F58012014475A004E54686
:1000900093F58012014475A000E54793F5801201A5
:1000A0004480A6780012012C0830B2F9B80602800C
:1000B00003B80703D2F022C2F022780012013808F8
:1000C00020B2F9B80402800DB805028008B8060213
:1000D0008003B80705D2F0C2E722B80F02800DB83E
:1000E00010028008B811028003B81205D2F0D2E7DE
:1000F00022C2F02278001201380820B2F9B82B028F
:100100008003B82C03D2F022C2F022780012012C16
:100110000830B2F9B85B02800DB85A028008B859AD
:10012000028003B85803D2F022C2F02200007530DA
:100130001520B203D530FA22000075301530B20315
:10014000D530FA227530027531C7D531FDD530FA78
:01015000228C
:100500003F065B4F666D7D077F6F777C395E797143
:020510000040A9
:00000001FF
