:03000000020030CB
:10000B00F5F0C28DC28C888C898AD28CB2A5E5F0B2
:01001B0032B2
:1000300075A88275890174FFF5A0D28D7590FFC2F5
:100040009720930478E0790020920478F0790020DA
:10005000910478F1790020900478F27900D297C267
:100060009620930478F3790020920478F4790020A4
:10007000910478F5790020900478F67900D296C240
:100080009520930478F7790020920478F87900207D
:10009000910478F9790020900478FA7900D295C219
:1000A0009420930478FB790020920478FC79002056
:1000B000910478FD790020908378FE790002003C5D
:00000001FF
