:10000000758920758DFD759850D28E9000FA12007A
:10001000B11200C21200BAB45203020071B4570305
:1000200002002C9001281200B102000090015C1225
:1000300000B11200C21200BA1200D6C4F5F01200CC
:10004000C21200BA1200D645F0F89001481200B171
:100050001200C21200BA1200D6C4F5F01200C21289
:1000600000BA1200D645F0F69001731200B10200FA
:100070000090015C1200B11200C21200BA1200D648
:10008000C4F5F01200C21200BA1200D645F0F89082
:1000900000E41200B1E6C4540F1200CA1200BAE61E
:1000A000540F1200CA1200BA9001731200B102007C
:1000B00000E4931200BAA370F822F5993099FDC2BA
:1000C00099223098FDE599C29822B40A0040042490
:1000D000378002243022B43A004005C394378003AD
:1000E000C39430220A5448452053544F524544206B
:1000F00044415441204953203A000A504C45415351
:10010000452053454C4543542052454144204F52CD
:1001100020575249544520425920545950494E477E
:100120002052204F522057000A494E56414C494414
:1001300020494E50555420504C454153452054526F
:100140005920414741494E000A504C4541534520F2
:10015000454E54455220444154413A000A504C45C2
:1001600041534520454E5445522041444452455345
:0C017000533A000A444F4E452121210063
:00000001FF
