:1000000090030075A00075800075A0007580001237
:1000100000F212019412014A1201D875A01CE89353
:10002000F58012011375A018E993F580120113757C
:10003000A014EA93F58012011375A010EB93B2E7B8
:10004000F58012011375A00CEC93F5801201137565
:10005000A008ED93F58012011375A004EE93F580CE
:1000600012011375A000EF93F580120113809AC25C
:10007000B7120128D2B712013F30B71512013F3035
:10008000B70F12013F30B70912013F30B70302002A
:100090000012013420B71512013420B70F120134B9
:1000A00020B70912013420B703020000227F08C2E2
:1000B000B7A2E092B7120134D2B703DFF2227F0871
:1000C000C2B7D2B7000000000000A2B792E7120149
:1000D0003403DFEC232212006F74CC1200AD7444A1
:1000E0001200AD2212006F74CC1200AD74BE12006B
:1000F000AD221200D61200E41200BEF5F01200BECE
:10010000C5F0FFC4540FC5F0C454F045F0F5F0EF4E
:10011000540F22C040C0417540027541C3D541FD16
:10012000D540FAD041D0402200C0407540D8D540DB
:10013000FDD04022C040754017D540FDD04022C0C0
:1001400040754002D540FDD04022F5F07550007555
:10015000510030F30CE5512488F551E5503413F586
:100160005030F20CE55124C4F551E5503409F550F6
:1001700030F10CE55124E2F551E5503404F55030EE
:10018000F00CE5512471F551E5503402F5508550DD
:10019000F0E55122F54730F70B7811C5F0F4240152
:1001A000C5F08002781079007A007B0085F020C3CA
:1001B000E5209464F52040030980F5E5202464F5EA
:1001C00020C3E520940AF52040030A80F5E52024A9
:1001D0000AF520AB20E547227C007D007E007F00F1
:1001E00085F020F5217530037531E8C312021E40F9
:1001F000030C80F812022B753000753164C31202B3
:100200001E40030D80F812022B75300075310AC3B1
:1002100012021E40030E80F812022BAF2122E521AC
:100220009531F521E5209530F52022E5212531F5A0
:0802300021E5203530F5202204
:100300003F065B4F666D7D077F6F777C395E797145
:020310000040AB
:00000001FF
